:100000000C9462000C948A000C948A000C948A0070
:100010000C941D050C948A000C948A000C948A00A0
:100020000C948A000C948A000C948A000C948A0028
:100030000C948A000C948A000C948A000C948A0018
:100040000C94FE0B0C948A000C948A000C948A0089
:100050000C948A000C948A000C948A000C948A00F8
:100060000C948A000C948A000000000024002700F1
:100070002A0000000000250028002B0000000000DE
:1000800023002600290004040404040404040202DA
:100090000202020203030303030301020408102007
:1000A0004080010204081020010204081020000012
:1000B0000007000201000003040600000000000029
:1000C0000000C20511241FBECFEFD8E0DEBFCDBFB8
:1000D00013E0A0E0B1E0E4E3FCE102C005900D9282
:1000E000AE3AB107D9F713E0AEEAB3E001C01D9212
:1000F000AC3EB107E1F710E0C4ECD0E004C02297B9
:10010000FE010E94DD0DC23CD107C9F70E94590AC9
:100110000C94180E0C940000AEE0B0E0E2E9F0E0C0
:100120000C94EF0D8C0186E08C831A8309838FEF8A
:100130009FE79E838D83CE0101960E94A800EF81E8
:10014000F885E00FF11F10822E96E4E00C940B0E60
:10015000ABE0B0E0EEEAF0E00C94E10D3C012B01E5
:100160005A01FC0117821682838181FD03C06FEF63
:100170007FEFC6C19AE0892E1E010894211C311C14
:10018000F3012381F20123FD859123FF81912F014A
:10019000882309F4B2C1853239F423FD859123FF08
:1001A00081912F01853229F490E0B3010E949B02D6
:1001B000E7CF982FFF24EE249924FFE1FF15D0F01C
:1001C0009B3269F09C3228F4903259F0933291F4CA
:1001D0000EC09D3249F0903369F441E024C052E0F2
:1001E000F52A84E0F82A28C098E0F92A25C0E0E141
:1001F000FE2A22C0F7FC29C0892F80538A3070F470
:10020000F6FE05C0989C902C1124980E15C0E89C11
:10021000E02C1124E80EF0E2FF2A0EC09E3229F4F1
:10022000F6FC6BC140E4F42A07C09C3619F450E890
:10023000F52A02C0983649F4F20123FD959123FF77
:1002400091912F01992309F0B8CF892F85548330DC
:1002500018F08052833038F444E050E0A40EB51E0C
:100260005FE359830FC0933631F0933779F09335BC
:1002700009F056C020C0F5018081898342E050E03A
:10028000A40EB51E610101E010E012C0F501C080AE
:10029000D180F6FC03C06FEF7FEF02C0692D70E0E4
:1002A00042E050E0A40EB51EC6010E9490028C01EF
:1002B0005FE7F52214C0F501C080D180F6FC03C0D1
:1002C0006FEF7FEF02C0692D70E042E050E0A40EB6
:1002D000B51EC6010E9485028C0150E8F52AF3FE86
:1002E00007C01AC080E290E0B3010E949B02EA942A
:1002F0008E2D90E008171907A8F30EC0F601F7FC41
:100300008591F7FE81916F0190E0B3010E949B02FD
:10031000E110EA94015010400115110579F7EAC087
:10032000943611F0993669F5F7FE08C0F501208181
:1003300031814281538184E090E00AC0F5018081DF
:1003400091819C01442737FD4095542F82E090E035
:10035000A80EB91E9FE6F92257FF09C05095409597
:10036000309521953F4F4F4F5F4FE0E8FE2ACA017D
:10037000B901A1012AE030E00E94C702D82ED218AC
:1003800040C0953729F41F2D1F7E2AE030E01DC0A4
:100390001F2D197F9F3661F0903720F4983509F0B2
:1003A000ACC00FC0903739F0983709F0A6C004C030
:1003B00028E030E00AC0106114FD146020E130E054
:1003C00004C014FD166020E132E017FF08C0F501FB
:1003D000608171818281938144E050E008C0F50121
:1003E00080819181BC0180E090E042E050E0A40E69
:1003F000B51EA1010E94C702D82ED2188FE7F82E91
:10040000F122F6FE0BC05EEFF522D91438F4F4FEAB
:1004100007C0F2FC05C08FEEF82202C01D2D01C0FE
:10042000192DF4FE0DC0FE01ED0DF11D808180330C
:1004300019F499EEF92208C01F5FF2FE05C003C04F
:100440008F2D867809F01F5F0F2DF3FC14C0F0FE8E
:100450000FC01E1510F09D2C0BC09D2C9E0C911AE8
:100460001E2D06C080E290E0B3010E949B021F5F38
:100470001E15C0F304C01E1510F4E11A01C0EE24CD
:1004800004FF0FC080E390E0B3010E949B0202FFD3
:100490001DC001FD03C088E790E00EC088E590E034
:1004A0000BC0802F867891F001FF02C08BE201C063
:1004B00080E2F7FC8DE290E0B3010E949B0206C04F
:1004C00080E390E0B3010E949B029A94D914C0F398
:1004D000DA94F101ED0DF11D808190E0B3010E94ED
:1004E0009B02DD20A9F706C080E290E0B3010E94E4
:1004F0009B02EA94EE20C1F743CEF3016681778137
:10050000CB012B96E2E10C94FD0DFC0105906150AE
:1005100070400110D8F7809590958E0F9F1F089519
:10052000FC016150704001900110D8F780959095C2
:100530008E0F9F1F08950F931F93CF93DF938C010E
:10054000EB018B8181FF1BC082FF0DC02E813F819B
:100550008C819D812817390764F4E881F981019322
:10056000F983E88306C0E885F985802F0995892BF2
:1005700031F48E819F8101969F838E8302C00FEF9D
:100580001FEFC801DF91CF911F910F910895FA01DC
:10059000AA27283051F1203181F1E8946F936E7FC2
:1005A0006E5F7F4F8F4F9F4FAF4FB1E03ED0B4E0B3
:1005B0003CD0670F781F891F9A1FA11D680F791FF4
:1005C0008A1F911DA11D6A0F711D811D911DA11D05
:1005D00020D009F468943F912AE0269F1124301915
:1005E000305D3193DEF6CF010895462F4770405DB0
:1005F0004193B3E00FD0C9F7F6CF462F4F70405D5F
:100600004A3318F0495D31FD4052419302D0A9F7B9
:10061000EACFB4E0A6959795879577956795BA95B3
:10062000C9F700976105710508959B01AC010A2E79
:1006300006945795479537952795BA95C9F7620F50
:10064000731F841F951FA01D08950F931F938C0186
:10065000FC01868160E00E94D80C81E090E00E945D
:10066000540CF801868161E00E94D80C81E090E092
:100670000E94540CF801868160E00E94D80C84E648
:1006800090E00E94540C1F910F910895CF92DF9239
:10069000EF92FF920F931F93CF93DF93D82EC92E23
:1006A000282F392FC9018C01C0E0D0E0E62EFF24AD
:1006B000F801878161E00E94990CB7010C2E02C0FD
:1006C000759567950A94E2F76170F80187810E9439
:1006D000D80C21960F5F1F4FC830D10549F78D2DDB
:1006E0009C2D0E942503DF91CF911F910F91FF90C8
:1006F000EF90DF90CF900895CF92DF92EF92FF922C
:100700000F931F93CF93DF93D82EC92E282F392F05
:10071000C9018C01C0E0D0E0E62EFF24F8018781FA
:1007200061E00E94990CB7010C2E02C07595679587
:100730000A94E2F76170F80187810E94D80C219633
:100740000F5F1F4FC430D10549F78D2D9C2D0E949E
:100750002503DF91CF911F910F91FF90EF90DF90D4
:10076000CF9008951F93CF93DF93EC01162F8C81C8
:10077000642F0E94D80C8D818F3F19F060E00E9499
:10078000D80C8F8584FF05C0CE01612F0E944603DF
:100790000EC0612F70E084E0759567958A95E1F74A
:1007A000CE010E947C03CE01612F0E947C03DF9169
:1007B000CF911F91089541E00E94B20381E090E043
:1007C000089540E00E94B2030895FC0161896E7FA4
:1007D000618B64600E94E1030895FC016089862FAB
:1007E0008460808B6C60CF010E94E1030895DF93E9
:1007F000CF93CDB7DEB728970FB6F894DEBF0FBE04
:10080000CDBF9C01FE013196A5EAB3E088E00D90D2
:1008100001928150E1F7F9018389481710F0482FC0
:100820004150E42FF0E0EE0FFF1FEC0FFD1F818120
:10083000680F6068C9010E94E10328960FB6F8941A
:10084000DEBF0FBECDBFCF91DF91089561E00E9462
:10085000E10380ED97E00E94540C0895CF93DF935D
:10086000EC01423018F08F8588608F874B8B1C8A93
:10087000222329F0413019F48F8584608F8780E529
:1008800093EC0E94540C8C8160E00E94D80C8E8105
:1008900060E00E94D80C8D818F3F19F060E00E94CB
:1008A000D80C6F8564FD1DC0CE0163E00E947C03FF
:1008B00084E991E10E94540CCE0163E00E947C0324
:1008C00084E991E10E94540CCE0163E00E947C0314
:1008D00086E990E00E94540CCE0162E00E947C0305
:1008E00016C06062CE010E94E10384E991E10E949A
:1008F000540C6F856062CE010E94E10386E990E0AE
:100900000E94540C6F856062CE010E94E1036F85E6
:100910006062CE010E94E10384E0888BCE010E94D8
:10092000ED03CE010E94260482E0898BCE0166E0B1
:100930000E94E103DF91CF9108956F927F928F9291
:10094000AF92CF92EF920F931F93DF93CF93CDB7D8
:10095000DEB73C01162F842FF301448325830683E1
:10096000E782C086A18682869D8593879E8594872F
:100970009F8595879889968761E00E94990CF3017D
:1009800085818F3F19F061E00E94990CF301868107
:1009900061E00E94990C112319F0F301178603C03E
:1009A00080E1F3018787C30160E141E020E00E941C
:1009B0002E04CF91DF911F910F91EF90CF90AF90C8
:1009C0008F907F906F9008958F92AF92CF92EF9219
:1009D0000F931F93CF93DF93DC01362F542F722F89
:1009E000102FAE2C8C2C13961C921E92129781EA1B
:1009F00093E011969C938E9300D000D0EDB7FEB794
:100A00003196CDB7DEB71982118212821382CD01E1
:100A100061E0432F2FEF052FE72EC12E0E949D048A
:100A20000F900F900F900F90DF91CF911F910F912A
:100A3000EF90CF90AF908F9008951F920F920FB6C6
:100A40000F921124EF92FF920F931F932F933F93D6
:100A50004F935F936F937F938F939F93AF93BF93C6
:100A6000EF93FF930E94460C7B018C018091AE03B3
:100A70009091AF03A091B003B091B103A801970189
:100A8000281B390B4A0B5B0B2436310541055105F8
:100A900038F18EE00E942C0D892B19F40E945E071C
:100AA00017C08FE00E942C0D892B19F40E94630758
:100AB0000FC080E10E942C0D892B19F40E94590768
:100AC00007C081E10E942C0D892B11F40E9454076C
:100AD000E092AE03F092AF030093B0031093B10322
:100AE000FF91EF91BF91AF919F918F917F916F9106
:100AF0005F914F913F912F911F910F91FF90EF9038
:100B00000F900FBE0F901F901895CF92DF92EF922B
:100B1000FF921F93CF93DF93C0E0D0E081E0C82E17
:100B2000D12CE12CF12CCE01825F182F60E00E94C5
:100B3000990C812F61E00E94D80C20916C00D701A4
:100B4000C6010C2E04C0880F991FAA1FBB1F0A9450
:100B5000D2F7282B20936C00D99A8091680082608C
:100B6000809368002196C430D105E9F6DF91CF91DA
:100B70001F91FF90EF90DF90CF9008958FEF8AB98B
:100B80001BB80895CF92EF920F9382EB93E06DE044
:100B90004CE028E009E05AE0E52E3BE0C32E0E943D
:100BA000E4040F91EF90CF900895CF93DF938330BB
:100BB0009105D9F0843091054CF48130910539F1DB
:100BC00082309105F4F4892BF9F024C08530910529
:100BD00079F08530910534F08630910561F0079702
:100BE000C9F40CC0C0E0D1E017C0C4E0D1E014C02B
:100BF000C8E0D1E011C0CCE0D1E00EC0C0E1D1E04E
:100C00000BC0C4E1D1E008C0C8E1D1E005C0CCE12F
:100C1000D1E002C0C0E2D1E082EB93E068E040E0C6
:100C20000E94F70382EB93E0BE010E94FB0BDF9171
:100C3000CF910895FF920F931F93F82E02EB13E0CC
:100C4000C80160E04F2D0E94F703C80164E271E023
:100C50000E94FB0BC80160E04F2D0E94F7031F911B
:100C60000F91FF900895AF92BF92CF92DF92EF92D3
:100C7000FF920F931F93DF93CF93CDB7DEB7CDB61F
:100C8000DEB682EB93E06D854E850E94F7038F857B
:100C9000E82EFF24C70101962DB73EB7281B390B5C
:100CA0000FB6F8943EBF0FBE2DBF0DB71EB70F5F36
:100CB0001F4F9E012E5E3F4FB02EA12EC8016889A6
:100CC0007989A9010E948C00F801E80FF91F20E240
:100CD00002C0219301968E159F05DCF30E0D1F1D9A
:100CE000F801108282EB93E06B2D7A2D0E94FB0BB2
:100CF0000FB6F894DEBE0FBECDBECF91DF911F912F
:100D00000F91FF90EF90DF90CF90BF90AF9008953C
:100D1000EF92FF920F931F93DF93CF93CDB7DEB780
:100D20002E970FB6F894DEBF0FBECDBF8C018DB7E6
:100D30009EB709970FB6F8949EBF0FBE8DBFEDB753
:100D4000FEB73196ADB7BEB711961C92118285E001
:100D5000828385E391E094838383D80114962D9157
:100D60003D914D915C91179725833683478350873A
:100D70000E943306EDB7FEB739960FB6F894FEBF62
:100D80000FBEEDBFD8016D917D918D919C917E013B
:100D90000894E11CF11CA7012EE00E94730702EBEE
:100DA00013E0C80161E041E00E94F703C801B70108
:100DB0000E94FB0B2E960FB6F894DEBF0FBECDBF80
:100DC000CF91DF911F910F91FF90EF9008952DB774
:100DD0003EB7275030400FB6F8943EBF0FBE2DBF30
:100DE000EDB7FEB731962DE0ADB7BEB711962C9397
:100DF000118223E022832AE331E034832383968324
:100E000085830E9433062DB73EB7295F3F4F0FB64B
:100E1000F8943EBF0FBE2DBF08950F931F9302EBB2
:100E200013E0C80160E142E020E00E942E04C80106
:100E30000E94E50380E00E941A06C80165E040E0D8
:100E40000E94F703C80160E471E00E94FB0BC80137
:100E50006CE040E00E94F703C80163E471E00E9487
:100E6000FB0B81E00E941A06C8016EE041E00E947F
:100E7000F703C80165E471E00E94FB0B1F910F911D
:100E800008950F931F938C01FC01828593850E9426
:100E9000E706C8010E948806F801808591850E94B6
:100EA000D5051F910F9108950E9494090E94410752
:100EB00008950E94BD090E94E70608950E941E0A37
:100EC0000E94880608950E94D9090E948806089504
:100ED0000E940D070E9485050E94BE050E94390AE6
:100EE0000E94410708952F923F924F925F926F9216
:100EF0007F928F929F92AF92BF92CF92DF92EF92AA
:100F0000FF920F931F93CF93DF932B013C011A01A4
:100F1000922E9A94E92DFF27E7FDF095E40FF51F37
:100F20001082611571058105910549F49A94E92DA6
:100F3000FF27E7FDF095E40FF51F80E34FC05B014D
:100F40006C0197FF07C0AA24BB246501A61AB70A43
:100F5000C80AD90AC3E0D0E08CE2882EC601B501E8
:100F60002AE030E040E050E00E94C00D7B018C019F
:100F7000C601B5012AE030E040E050E00E94C00D1B
:100F8000C901DA015C016D019A94E92DFF27E7FDA3
:100F9000F095E20DF31D88E491E0E80EF91ED7010B
:100FA0008C918083A114B104C104D10469F021970C
:100FB000A9F69A94E92DFF27E7FDF095E20DF31DC0
:100FC0008082C3E0D0E0CACF77FE09C09A94E92DB1
:100FD000FF27E7FDF095E20DF31D8DE28083292DBB
:100FE0002150A22FBB27A7FDB095A20DB31D80E213
:100FF00003C08C932150119727FFFBCFDF91CF9136
:101000001F910F91FF90EF90DF90CF90BF90AF9026
:101010009F908F907F906F905F904F903F902F9018
:101020000895CF92DF92EF92FF920F931F936091FA
:10103000D0037091D1031092CF036115710519F09F
:1010400081E08093CF036115710521F4CC24DD2468
:10105000760106C084E7C82E84E0D82EE12CF12C5E
:101060000091D2031091D30380E090E028EB31E0AF
:1010700040E050E00E947F0DC60ED71EE81EF91E0C
:101080002091CD033091CE0340E050E0C701B6017E
:101090000E947F0D9B01AC018091D6039091D703F4
:1010A000A091D803B091D903280F391F4A1F5B1FA5
:1010B000F801208331834283538360E07AEC8AE92C
:1010C0009BE30E949E0DF80124833583468357835A
:1010D000C8011F910F91FF90EF90DF90CF9008957E
:1010E0001092D5031092D40384309105A9F1853074
:1010F00091055CF48230910509F49EC0833091051E
:1011000084F4019709F0BAC0A8C08630910509F4AB
:101110005DC0863091050CF43EC0079709F0AEC063
:1011200070C084E190E09093D5038093D4038AE06B
:1011300090E09093CE038093CD038EED9AE3A0E0F0
:10114000B0E08093D6039093D703A093D803B093D5
:10115000D90383E591E01AC084E190E09093D50330
:101160008093D4038AE090E09093CE038093CD03E4
:101170008EED9AE3A0E0B0E08093D6039093D7037E
:10118000A093D803B093D9038DE591E09093C80361
:101190008093C7038BC084E190E09093D503809344
:1011A000D4038AE090E09093CE038093CD038EED3C
:1011B0009AE3A0E0B0E08093D6039093D703A09386
:1011C000D803B093D90387E691E0E0CF84E190E0C3
:1011D0009093D5038093D4038AE090E09093CE035C
:1011E0008093CD038EED9AE3A0E0B0E08093D60328
:1011F0009093D703A093D803B093D90381E791E0EC
:10120000C5CF84E190E09093D5038093D4038AE026
:1012100090E09093CE038093CD038EED9AE3A0E00F
:10122000B0E08093D6039093D703A093D803B093F4
:10123000D9038BE791E0AACF84E390E09093CE03AB
:101240008093CD0385E891E09093C8038093C70312
:101250008CE192E3A1E0B0E021C088E691E09093B8
:10126000CE038093CD0389EB91E09093C8038093E4
:10127000C70388E397E4A8E0B0E010C086E790E0F9
:101280009093CE038093CD0381E293E09093C803C3
:101290008093C70382EA96EBA2E0B0E08093D60386
:1012A0009093D703A093D803B093D9038091C70339
:1012B0009091C8039093CA038093C9031092CC0302
:1012C0001092CB0360E070E080E090E82091D603BC
:1012D0003091D7034091D8035091D903621B730B0F
:1012E000840B950B2091CD033091CE0340E050E06C
:1012F0000E949E0D2093DA033093DB034093DC03BE
:101300005093DD032091D4033091D5038091D00315
:101310009091D1038217930720F43093D103209347
:10132000D0030E94110808950F931F938091DE034C
:10133000873019F41092DE0303C08F5F8093DE03C1
:101340000091D2031091D3038091DE03F8018087CE
:10135000118690E00E947008C8011F910F910895B6
:101360002091D0033091D10380E090E002C00000D2
:10137000019682179307D8F30895E091D203F09174
:10138000D303828593859C0153E0220F331F5A9526
:10139000E1F7880F991F280F391F338722872536D9
:1013A000310520F081E090E09387828782859385E4
:1013B0000895EF92FF920F931F93CF93DF93E091E5
:1013C000D203F091D303C285D3858091D00390914D
:1013D000D103C80FD91F209739F064E7E62E64E0E7
:1013E000F62E012D112D03C0EE24FF248701BE012E
:1013F00080E090E028EB31E040E050E00E947F0D7B
:10140000E60EF71E081F191F8091DA039091DB0387
:10141000A091DC03B091DD038E159F05A007B107F5
:1014200020F0D093D103C093D0030E941108DF9124
:10143000CF911F910F91FF90EF9008958091D0036D
:101440009091D103E091D203F091D30322853385AB
:101450002817390718F4821B930B04C08091D4031A
:101460009091D5039093D1038093D0030E941108EB
:101470000895FF920F931F938CE090E00E94800AE2
:10148000F92E082F192F1093D3030093D2038091C4
:10149000DE03F8018087118621E030E03387228760
:1014A00090E00E947008802F9F2D1F910F91FF9058
:1014B0000895CF93DF930E945E0C0E94680780918D
:1014C000C9039091CA039093C8038093C703C0E0F7
:1014D000D0E0E091C703F091C803EC0FFD1F8081BD
:1014E0008BB98091CF03882311F00E94B009219617
:1014F0008091CD039091CE03C817D90751F7DFCF64
:101500000F931F93CF93DF93BC018230910510F4AA
:1015100062E070E0E091EA03F091EB03A0E0B0E05C
:1015200040E050E024C08081918186179707D0F079
:101530008617970771F482819381109729F013968B
:101540009C938E9312972CC09093EB038093EA03A5
:1015500027C04115510519F08417950718F4EF01BC
:101560008D01AC01DF01828193819C01F9013097EB
:10157000D1F641155105F9F0CA01861B970B84304D
:10158000910580F48A819B810115110521F0F801F4
:101590009383828304C09093EB038093EA03FE015C
:1015A000329645C0FE01E80FF91F619371930297CF
:1015B000998388833CC08091E8039091E903892B4B
:1015C00041F48091990390919A039093E903809359
:1015D000E80340919B0350919C034115510541F450
:1015E0004DB75EB78091970390919803481B590BB4
:1015F0002091E8033091E90324173507B0F4CA01BC
:10160000821B930B8617970780F0AB014E5F5F4FED
:101610008417950750F0420F531F5093E9034093EE
:10162000E803F9016193719302C0E0E0F0E0CF01BB
:10163000DF91CF911F910F910895CF93DF939C017C
:10164000009709F48FC0EC0122971B821A826091E7
:10165000EA037091EB036115710581F4888199812A
:10166000820F931F2091E8033091E903281739076F
:1016700039F5D093E903C093E80374C0DB0140E07F
:1016800050E0AC17BD0708F1BB83AA83FE0121918E
:101690003191E20FF31FAE17BF0779F48D919C9142
:1016A0001197280F391F2E5F3F4F398328831296D9
:1016B0008D919C9113979B838A834115510571F4F9
:1016C000D093EB03C093EA034DC012968D919C9189
:1016D0001397AD01009711F0DC01D3CFDA01139617
:1016E000DC93CE931297FA0121913191E20FF31F0F
:1016F000CE17DF0769F488819981280F391F2E5F83
:101700003F4FFA01318320838A819B8193838283B7
:10171000E0E0F0E0DB0112968D919C911397009729
:1017200019F0BC01FD01F6CFAB014E5F5F4FDB014D
:101730008D919C91840F951F2091E8033091E903CE
:101740002817390779F4309729F41092EB03109297
:10175000EA0302C013821282425050405093E903C0
:101760004093E803DF91CF910895CF92DF92EF92FB
:10177000FF920F931F93CF93DF937C016B018A013C
:10178000C0E0D0E00FC0D6016D916D01D701ED91A1
:10179000FC910190F081E02DC7010995C80FD91F78
:1017A000015010400115110571F7CE01DF91CF9165
:1017B0001F910F91FF90EF90DF90CF900895CF93FE
:1017C000DF93EC016115710519F420E030E00FC0E2
:1017D000DB010D900020E9F71197A61BB70BE881FC
:1017E000F9810280F381E02DAD0109959C01C901C9
:1017F000DF91CF9108950E94DF0B08951F920F9201
:101800000FB60F9211242F933F938F939F93AF9313
:10181000BF938091E3039091E403A091E503B0911D
:10182000E6033091E7030196A11DB11D232F2D5F23
:101830002D3720F02D570196A11DB11D2093E703F0
:101840008093E3039093E403A093E503B093E6034E
:101850008091DF039091E003A091E103B091E20356
:101860000196A11DB11D8093DF039093E003A09327
:10187000E103B093E203BF91AF919F918F913F91AC
:101880002F910F900FBE0F901F9018958FB7F8945F
:101890002091E3033091E4034091E5035091E60386
:1018A0008FBFB901CA010895019739F0880F991FB8
:1018B000880F991F02970197F1F70895789484B5DE
:1018C000826084BD84B5816084BD85B5826085BD3C
:1018D00085B5816085BDEEE6F0E080818160808322
:1018E000E1E8F0E010828081826080838081816005
:1018F0008083E0E8F0E0808181608083E1EBF0E0CC
:10190000808184608083E0EBF0E08081816080836F
:10191000EAE7F0E080818460808380818260808358
:101920008081816080838081806880831092C10083
:101930000895CF93DF93482F50E0CA0186569F4FFA
:10194000FC0134914A575F4FFA018491882369F171
:1019500090E0880F991FFC01E859FF4FA591B491C1
:10196000FC01EE58FF4FC591D491662351F42FB777
:10197000F8948C91932F909589238C938881892357
:101980000BC0623061F42FB7F8948C91932F90952F
:1019900089238C938881832B88832FBF06C09FB7B0
:1019A000F8948C91832B8C939FBFDF91CF910895F6
:1019B000482F50E0CA0182559F4FFC012491CA0173
:1019C00086569F4FFC0194914A575F4FFA0134911C
:1019D000332309F440C0222351F1233071F0243025
:1019E00028F42130A1F0223011F514C02630B1F0D6
:1019F0002730C1F02430D9F404C0809180008F7763
:101A000003C0809180008F7D8093800010C084B5DA
:101A10008F7702C084B58F7D84BD09C08091B000EE
:101A20008F7703C08091B0008F7D8093B000E32F4B
:101A3000F0E0EE0FFF1FEE58FF4FA591B4912FB7C6
:101A4000F894662321F48C919095892302C08C919F
:101A5000892B8C932FBF0895682F70E0CB0182559E
:101A60009F4FFC012491CB0186569F4FFC0144916E
:101A70006A577F4FFB019491992319F420E030E0DD
:101A80003CC0222351F1233071F0243028F421305E
:101A9000A1F0223011F514C02630B1F02730C1F08A
:101AA0002430D9F404C0809180008F7703C08091E6
:101AB00080008F7D8093800010C084B58F7702C036
:101AC00084B58F7D84BD09C08091B0008F7703C03D
:101AD0008091B0008F7D8093B000892F90E0880FB7
:101AE000991F84589F4FFC01A591B4918C9120E0DF
:101AF00030E0842311F021E030E0C9010895629FB5
:101B0000D001739FF001829FE00DF11D649FE00DF5
:101B1000F11D929FF00D839FF00D749FF00D659F56
:101B2000F00D9927729FB00DE11DF91F639FB00D55
:101B3000E11DF91FBD01CF0111240895A1E21A2E64
:101B4000AA1BBB1BFD010DC0AA1FBB1FEE1FFF1F61
:101B5000A217B307E407F50720F0A21BB30BE40BB1
:101B6000F50B661F771F881F991F1A9469F76095F8
:101B70007095809590959B01AC01BD01CF010895B2
:101B800097FB092E05260ED057FD04D0D7DF0AD0CB
:101B9000001C38F450954095309521953F4F4F4F9C
:101BA0005F4F0895F6F790958095709561957F4FFA
:101BB0008F4F9F4F0895EE0FFF1F0590F491E02D7A
:101BC00009942F923F924F925F926F927F928F92E1
:101BD0009F92AF92BF92CF92DF92EF92FF920F93BC
:101BE0001F93CF93DF93CDB7DEB7CA1BDB0B0FB6C6
:101BF000F894DEBF0FBECDBF09942A883988488883
:101C00005F846E847D848C849B84AA84B984C88418
:101C1000DF80EE80FD800C811B81AA81B981CE0F0F
:101C2000D11D0FB6F894DEBF0FBECDBFED010895F4
:041C3000F894FFCF56
:101C340053323000533130005333300053353000C9
:101C4400533730005341570053494E0053494D0018
:101C54003F3F3F0020202020202020202020202043
:101C6400202020200025356C7500252D303364009C
:101C7400487A0078006E73003031323334353637A9
:101C8400383900FF000000000000000000FFFF00E2
:101C940000000000000000FFFFFF00000000000043
:101CA40000FFFFFFFFFF0000000000FFFFFFFFFF3A
:101CB400FFFF00000000050A0F14191E23282D320F
:101CC400373C41464B50555A5F64696E73787D8248
:101CD400878C91969BA0A5AAAFB4B9BEC3C8CDD238
:101CE400D7DCE1E6EBF0F5FAFF80828486888B8D01
:101CF4008F919396989A9C9EA0A3A5A7A9ABADAFEC
:101D0400B1B3B5B7B9BBBDBFC1C3C5C7C9CACCCED2
:101D1400D0D1D3D5D6D8DADBDDDEE0E1E3E4E5E704
:101D2400E8E9EAECEDEEEFF0F1F2F3F4F5F6F7F7AB
:101D3400F8F9F9FAFBFBFCFCFDFDFDFEFEFEFFFFDE
:101D4400FFFFFFFFFFFFFFFFFFFEFEFEFDFDFDFCAB
:101D5400FCFBFBFAF9F9F8F7F7F6F5F4F3F2F1F016
:101D6400EFEEEDECEAE9E8E7E5E4E3E1E0DEDDDB14
:101D7400DAD8D6D5D3D1D0CECCCAC9C7C5C3C1BF92
:101D8400BDBBB9B7B5B3B1AFADABA9A7A5A3A09E71
:101D94009C9A989693918F8D8B88868482807D7B84
:101DA40079777472706E6C69676563615F5C5A58A9
:101DB400565452504E4C4A48464442403E3C3A38AF
:101DC400363533312F2E2C2A2927252422211F1E74
:101DD4001C1B1A18171615131211100F0E0D0C0BCD
:101DE4000A0908080706060504040303020202019F
:101DF40001010000000000000000000000010101DA
:101E040002020203030404050606070808090A0B74
:101E14000C0D0E0F10111213151617181A1B1C1E79
:101E24001F2122242527292A2C2E2F3133353638F9
:101E34003A3C3E40424446484A4C4E50525456580E
:101E44005A5C5F61636567696C6E70727477797BE5
:101E54007D80868D939AA0A7ADB3B9BFC5CAD0D5EE
:101E6400DADEE3E7EAEEF1F4F7F9FBFCFDFEFFFF4F
:101E7400FFFEFDFCFBF9F7F4F1EEEAE7E3DEDAD569
:101E8400D0CAC5BFB9B3ADA7A09A938D8680797225
:101E94006C655F58524C46403A352F2A25211C1850
:101EA40015110E0B080604030201000102030406C7
:101EB400080B0E1115181C21252A2F353A40464CC3
:101EC40052585F656C72778000EC030000000000DC
:0E1ED40000DB03B50B000040001400540000BA
:00000001FF
